{
  "contractName": "DiningHall",
  "abi": [
    {
      "inputs": [
        {
          "internalType": "address",
          "name": "_tokenAddress",
          "type": "address"
        }
      ],
      "stateMutability": "nonpayable",
      "type": "constructor"
    },
    {
      "anonymous": false,
      "inputs": [
        {
          "indexed": true,
          "internalType": "address",
          "name": "buyer",
          "type": "address"
        },
        {
          "indexed": false,
          "internalType": "uint256",
          "name": "ethAmount",
          "type": "uint256"
        },
        {
          "indexed": false,
          "internalType": "uint256",
          "name": "tokenAmount",
          "type": "uint256"
        }
      ],
      "name": "BuyMeal",
      "type": "event"
    },
    {
      "inputs": [],
      "name": "admin",
      "outputs": [
        {
          "internalType": "address",
          "name": "",
          "type": "address"
        }
      ],
      "stateMutability": "view",
      "type": "function"
    },
    {
      "inputs": [],
      "name": "token",
      "outputs": [
        {
          "internalType": "contract IERC20",
          "name": "",
          "type": "address"
        }
      ],
      "stateMutability": "view",
      "type": "function"
    },
    {
      "inputs": [
        {
          "internalType": "address",
          "name": "account",
          "type": "address"
        }
      ],
      "name": "getUserTokenBalance",
      "outputs": [
        {
          "internalType": "uint256",
          "name": "",
          "type": "uint256"
        }
      ],
      "stateMutability": "view",
      "type": "function"
    },
    {
      "inputs": [
        {
          "internalType": "uint256",
          "name": "_tokenAmount",
          "type": "uint256"
        }
      ],
      "name": "buyMealWithTokens",
      "outputs": [],
      "stateMutability": "nonpayable",
      "type": "function"
    }
  ],
  "bytecode": "0x608060405234801561001057600080fd5b506040516109713803806109718339818101604052810190610032919061011c565b336000806101000a81548173ffffffffffffffffffffffffffffffffffffffff021916908373ffffffffffffffffffffffffffffffffffffffff16021790555080600160006101000a81548173ffffffffffffffffffffffffffffffffffffffff021916908373ffffffffffffffffffffffffffffffffffffffff16021790555050610149565b600080fd5b600073ffffffffffffffffffffffffffffffffffffffff82169050919050565b60006100e9826100be565b9050919050565b6100f9816100de565b811461010457600080fd5b50565b600081519050610116816100f0565b92915050565b600060208284031215610132576101316100b9565b5b600061014084828501610107565b91505092915050565b610819806101586000396000f3fe608060405234801561001057600080fd5b506004361061004c5760003560e01c8063bfe2a25414610051578063f5aec88c1461006d578063f851a4401461009d578063fc0c546a146100bb575b600080fd5b61006b600480360381019061006691906103c6565b6100d9565b005b61008760048036038101906100829190610451565b61029c565b604051610094919061048d565b60405180910390f35b6100a5610341565b6040516100b291906104b7565b60405180910390f35b6100c3610365565b6040516100d09190610531565b60405180910390f35b6000811161011c576040517f08c379a0000000000000000000000000000000000000000000000000000000008152600401610113906105a9565b60405180910390fd5b806101263361029c565b1015610167576040517f08c379a000000000000000000000000000000000000000000000000000000000815260040161015e90610615565b60405180910390fd5b600160009054906101000a900473ffffffffffffffffffffffffffffffffffffffff1673ffffffffffffffffffffffffffffffffffffffff166323b872dd3330846040518463ffffffff1660e01b81526004016101c693929190610635565b6020604051808303816000875af11580156101e5573d6000803e3d6000fd5b505050506040513d601f19601f8201168201806040525081019061020991906106a4565b610248576040517f08c379a000000000000000000000000000000000000000000000000000000000815260040161023f9061071d565b60405180910390fd5b3373ffffffffffffffffffffffffffffffffffffffff167f185d0e90f0ed1e157857d5f5c63e9c1495cfec44684ddc914ed6deaa9f47c20a600083604051610291929190610778565b60405180910390a250565b6000600160009054906101000a900473ffffffffffffffffffffffffffffffffffffffff1673ffffffffffffffffffffffffffffffffffffffff166370a08231836040518263ffffffff1660e01b81526004016102f991906104b7565b602060405180830381865afa158015610316573d6000803e3d6000fd5b505050506040513d601f19601f8201168201806040525081019061033a91906107b6565b9050919050565b60008054906101000a900473ffffffffffffffffffffffffffffffffffffffff1681565b600160009054906101000a900473ffffffffffffffffffffffffffffffffffffffff1681565b600080fd5b6000819050919050565b6103a381610390565b81146103ae57600080fd5b50565b6000813590506103c08161039a565b92915050565b6000602082840312156103dc576103db61038b565b5b60006103ea848285016103b1565b91505092915050565b600073ffffffffffffffffffffffffffffffffffffffff82169050919050565b600061041e826103f3565b9050919050565b61042e81610413565b811461043957600080fd5b50565b60008135905061044b81610425565b92915050565b6000602082840312156104675761046661038b565b5b60006104758482850161043c565b91505092915050565b61048781610390565b82525050565b60006020820190506104a2600083018461047e565b92915050565b6104b181610413565b82525050565b60006020820190506104cc60008301846104a8565b92915050565b6000819050919050565b60006104f76104f26104ed846103f3565b6104d2565b6103f3565b9050919050565b6000610509826104dc565b9050919050565b600061051b826104fe565b9050919050565b61052b81610510565b82525050565b60006020820190506105466000830184610522565b92915050565b600082825260208201905092915050565b7f496e76616c696420746f6b656e20616d6f756e74000000000000000000000000600082015250565b600061059360148361054c565b915061059e8261055d565b602082019050919050565b600060208201905081810360008301526105c281610586565b9050919050565b7f496e73756666696369656e742062616c616e6365000000000000000000000000600082015250565b60006105ff60148361054c565b915061060a826105c9565b602082019050919050565b6000602082019050818103600083015261062e816105f2565b9050919050565b600060608201905061064a60008301866104a8565b61065760208301856104a8565b610664604083018461047e565b949350505050565b60008115159050919050565b6106818161066c565b811461068c57600080fd5b50565b60008151905061069e81610678565b92915050565b6000602082840312156106ba576106b961038b565b5b60006106c88482850161068f565b91505092915050565b7f546f6b656e207472616e73666572206661696c65640000000000000000000000600082015250565b600061070760158361054c565b9150610712826106d1565b602082019050919050565b60006020820190508181036000830152610736816106fa565b9050919050565b6000819050919050565b600061076261075d6107588461073d565b6104d2565b610390565b9050919050565b61077281610747565b82525050565b600060408201905061078d6000830185610769565b61079a602083018461047e565b9392505050565b6000815190506107b08161039a565b92915050565b6000602082840312156107cc576107cb61038b565b5b60006107da848285016107a1565b9150509291505056fea2646970667358221220401981753d819773abfe1c2ea464c4074303cc6c51e4084cc390d1543080b9f464736f6c634300080d0033",
  "immutableReferences": {},
  "source": "// SPDX-License-Identifier: MIT\npragma solidity ^0.8.0;\n\nimport \"./IERC20.sol\";\n\ncontract DiningHall {\n    address public admin;\n    IERC20 public token;\n\n    event BuyMeal(\n        address indexed buyer,\n        uint256 ethAmount,\n        uint256 tokenAmount\n    );\n\n    modifier onlyAdmin() {\n        require(msg.sender == admin, \"Only admin calls\");\n        _;\n    }\n\n    constructor(address _tokenAddress) {\n        admin = msg.sender;\n        token = IERC20(_tokenAddress);\n    }\n\n    function getUserTokenBalance(\n        address account\n    ) public view returns (uint256) {\n        // Kullancnn token bakiyesini almak iin bu fonksiyonu kullanabilirsiniz\n        return token.balanceOf(account);\n    }\n\n    function buyMealWithTokens(uint256 _tokenAmount) external {\n        require(_tokenAmount > 0, \"Invalid token amount\");\n\n        // Kullancnn yeterli miktarda tokena sahip olup olmadn kontrol et\n        require(\n            getUserTokenBalance(msg.sender) >= _tokenAmount,\n            \"Insufficient balance\"\n        );\n\n        // Kullancnn tokenlar bu akll kontrata aktar\n        require(\n            token.transferFrom(msg.sender, address(this), _tokenAmount),\n            \"Token transfer failed\"\n        );\n\n        // Burada yemek alma ilemleri gerekletirilebilir\n        // rnein, belirli bir miktarda yemek verilebilir\n\n        emit BuyMeal(msg.sender, 0, _tokenAmount); // Burada ethAmount 0 olarak belirtilmitir, nk ETH alm olmadan sadece token ile ilem gerekleiyor.\n    }\n\n    // Dier fonksiyonlar...\n}\n",
  "sourcePath": "/Users/beyzaevcen/Desktop/UniChain/contracts/UniChain.sol",
  "compiler": {
    "name": "solc",
    "version": "0.8.13+commit.abaa5c0e.Emscripten.clang"
  },
  "schemaVersion": "3.4.16",
  "updatedAt": "2024-01-23T12:16:32.717Z",
  "devdoc": {
    "kind": "dev",
    "methods": {},
    "version": 1
  },
  "userdoc": {
    "kind": "user",
    "methods": {},
    "version": 1
  }
}