{
  "contractName": "UniChain",
  "abi": [
    {
      "inputs": [],
      "stateMutability": "nonpayable",
      "type": "constructor"
    },
    {
      "anonymous": false,
      "inputs": [
        {
          "indexed": true,
          "internalType": "address",
          "name": "user",
          "type": "address"
        },
        {
          "indexed": false,
          "internalType": "uint256",
          "name": "amount",
          "type": "uint256"
        },
        {
          "indexed": false,
          "internalType": "uint256",
          "name": "newBalance",
          "type": "uint256"
        }
      ],
      "name": "Deposit",
      "type": "event"
    },
    {
      "anonymous": false,
      "inputs": [
        {
          "indexed": true,
          "internalType": "address",
          "name": "sender",
          "type": "address"
        },
        {
          "indexed": true,
          "internalType": "address",
          "name": "recipient",
          "type": "address"
        },
        {
          "indexed": false,
          "internalType": "uint256",
          "name": "amount",
          "type": "uint256"
        },
        {
          "indexed": false,
          "internalType": "uint256",
          "name": "senderBalance",
          "type": "uint256"
        },
        {
          "indexed": false,
          "internalType": "uint256",
          "name": "recipientBalance",
          "type": "uint256"
        }
      ],
      "name": "SendMoney",
      "type": "event"
    },
    {
      "inputs": [
        {
          "internalType": "address",
          "name": "",
          "type": "address"
        }
      ],
      "name": "balances",
      "outputs": [
        {
          "internalType": "uint256",
          "name": "",
          "type": "uint256"
        }
      ],
      "stateMutability": "view",
      "type": "function"
    },
    {
      "inputs": [],
      "name": "owner",
      "outputs": [
        {
          "internalType": "address",
          "name": "",
          "type": "address"
        }
      ],
      "stateMutability": "view",
      "type": "function"
    },
    {
      "inputs": [],
      "name": "deposit",
      "outputs": [],
      "stateMutability": "payable",
      "type": "function"
    },
    {
      "inputs": [],
      "name": "buyFood",
      "outputs": [],
      "stateMutability": "payable",
      "type": "function"
    },
    {
      "inputs": [
        {
          "internalType": "address",
          "name": "recipient",
          "type": "address"
        },
        {
          "internalType": "uint256",
          "name": "amount",
          "type": "uint256"
        }
      ],
      "name": "sendMoney",
      "outputs": [],
      "stateMutability": "nonpayable",
      "type": "function"
    },
    {
      "inputs": [],
      "name": "getBalance",
      "outputs": [
        {
          "internalType": "uint256",
          "name": "",
          "type": "uint256"
        }
      ],
      "stateMutability": "view",
      "type": "function"
    },
    {
      "inputs": [
        {
          "internalType": "uint256",
          "name": "amount",
          "type": "uint256"
        }
      ],
      "name": "withdrawBalance",
      "outputs": [],
      "stateMutability": "nonpayable",
      "type": "function"
    },
    {
      "inputs": [],
      "name": "selam",
      "outputs": [
        {
          "internalType": "string",
          "name": "",
          "type": "string"
        }
      ],
      "stateMutability": "pure",
      "type": "function"
    }
  ],
  "bytecode": "0x608060405234801561001057600080fd5b50336000806101000a81548173ffffffffffffffffffffffffffffffffffffffff021916908373ffffffffffffffffffffffffffffffffffffffff160217905550610f44806100606000396000f3fe60806040526004361061007b5760003560e01c8063d0e30db01161004e578063d0e30db01461013e578063da76d5cd14610148578063ee4ae2c914610171578063f3fd47a01461019a5761007b565b806312065fe01461008057806327e235e3146100ab5780636b4b36ea146100e85780638da5cb5b14610113575b600080fd5b34801561008c57600080fd5b506100956101a4565b6040516100a2919061088c565b60405180910390f35b3480156100b757600080fd5b506100d260048036038101906100cd919061090a565b6101eb565b6040516100df919061088c565b60405180910390f35b3480156100f457600080fd5b506100fd610203565b60405161010a91906109d0565b60405180910390f35b34801561011f57600080fd5b50610128610240565b6040516101359190610a01565b60405180910390f35b610146610264565b005b34801561015457600080fd5b5061016f600480360381019061016a9190610a48565b61038e565b005b34801561017d57600080fd5b5061019860048036038101906101939190610a75565b6104c9565b005b6101a2610725565b005b6000600160003373ffffffffffffffffffffffffffffffffffffffff1673ffffffffffffffffffffffffffffffffffffffff16815260200190815260200160002054905090565b60016020528060005260406000206000915090505481565b60606040518060400160405280600681526020017f53656c616d210000000000000000000000000000000000000000000000000000815250905090565b60008054906101000a900473ffffffffffffffffffffffffffffffffffffffff1681565b600034116102a7576040517f08c379a000000000000000000000000000000000000000000000000000000000815260040161029e90610b27565b60405180910390fd5b34600160003373ffffffffffffffffffffffffffffffffffffffff1673ffffffffffffffffffffffffffffffffffffffff16815260200190815260200160002060008282546102f69190610b76565b925050819055503373ffffffffffffffffffffffffffffffffffffffff167f90890809c654f11d6e72a28fa60149770a0d11ec6c92319d6ceb2bb0a4ea1a1534600160003373ffffffffffffffffffffffffffffffffffffffff1673ffffffffffffffffffffffffffffffffffffffff16815260200190815260200160002054604051610384929190610bcc565b60405180910390a2565b60008054906101000a900473ffffffffffffffffffffffffffffffffffffffff1673ffffffffffffffffffffffffffffffffffffffff163373ffffffffffffffffffffffffffffffffffffffff161461041c576040517f08c379a000000000000000000000000000000000000000000000000000000000815260040161041390610c41565b60405180910390fd5b4781111561045f576040517f08c379a000000000000000000000000000000000000000000000000000000000815260040161045690610cad565b60405180910390fd5b60008054906101000a900473ffffffffffffffffffffffffffffffffffffffff1673ffffffffffffffffffffffffffffffffffffffff166108fc829081150290604051600060405180830381858888f193505050501580156104c5573d6000803e3d6000fd5b5050565b6000811161050c576040517f08c379a000000000000000000000000000000000000000000000000000000000815260040161050390610d19565b60405180910390fd5b80600160003373ffffffffffffffffffffffffffffffffffffffff1673ffffffffffffffffffffffffffffffffffffffff16815260200190815260200160002054101561058e576040517f08c379a000000000000000000000000000000000000000000000000000000000815260040161058590610d85565b60405180910390fd5b80600160003373ffffffffffffffffffffffffffffffffffffffff1673ffffffffffffffffffffffffffffffffffffffff16815260200190815260200160002060008282546105dd9190610da5565b9250508190555080600160008473ffffffffffffffffffffffffffffffffffffffff1673ffffffffffffffffffffffffffffffffffffffff16815260200190815260200160002060008282546106339190610b76565b925050819055508173ffffffffffffffffffffffffffffffffffffffff163373ffffffffffffffffffffffffffffffffffffffff167f486cceb43c1a286ad22ab548c144ebba24c21c4342968e6ad9ace60593a0e80783600160003373ffffffffffffffffffffffffffffffffffffffff1673ffffffffffffffffffffffffffffffffffffffff16815260200190815260200160002054600160008873ffffffffffffffffffffffffffffffffffffffff1673ffffffffffffffffffffffffffffffffffffffff1681526020019081526020016000205460405161071993929190610dd9565b60405180910390a35050565b60003411610768576040517f08c379a000000000000000000000000000000000000000000000000000000000815260040161075f90610e82565b60405180910390fd5b6000670de0b6b3a76400009050803410156107b8576040517f08c379a00000000000000000000000000000000000000000000000000000000081526004016107af90610eee565b60405180910390fd5b80600160003373ffffffffffffffffffffffffffffffffffffffff1673ffffffffffffffffffffffffffffffffffffffff16815260200190815260200160002060008282546108079190610da5565b925050819055506000813461081c9190610da5565b9050600081111561086f573373ffffffffffffffffffffffffffffffffffffffff166108fc829081150290604051600060405180830381858888f1935050505015801561086d573d6000803e3d6000fd5b505b5050565b6000819050919050565b61088681610873565b82525050565b60006020820190506108a1600083018461087d565b92915050565b600080fd5b600073ffffffffffffffffffffffffffffffffffffffff82169050919050565b60006108d7826108ac565b9050919050565b6108e7816108cc565b81146108f257600080fd5b50565b600081359050610904816108de565b92915050565b6000602082840312156109205761091f6108a7565b5b600061092e848285016108f5565b91505092915050565b600081519050919050565b600082825260208201905092915050565b60005b83811015610971578082015181840152602081019050610956565b83811115610980576000848401525b50505050565b6000601f19601f8301169050919050565b60006109a282610937565b6109ac8185610942565b93506109bc818560208601610953565b6109c581610986565b840191505092915050565b600060208201905081810360008301526109ea8184610997565b905092915050565b6109fb816108cc565b82525050565b6000602082019050610a1660008301846109f2565b92915050565b610a2581610873565b8114610a3057600080fd5b50565b600081359050610a4281610a1c565b92915050565b600060208284031215610a5e57610a5d6108a7565b5b6000610a6c84828501610a33565b91505092915050565b60008060408385031215610a8c57610a8b6108a7565b5b6000610a9a858286016108f5565b9250506020610aab85828601610a33565b9150509250929050565b7f4465706f73697420616d6f756e74206d7573742062652067726561746572207460008201527f68616e2030000000000000000000000000000000000000000000000000000000602082015250565b6000610b11602583610942565b9150610b1c82610ab5565b604082019050919050565b60006020820190508181036000830152610b4081610b04565b9050919050565b7f4e487b7100000000000000000000000000000000000000000000000000000000600052601160045260246000fd5b6000610b8182610873565b9150610b8c83610873565b9250827fffffffffffffffffffffffffffffffffffffffffffffffffffffffffffffffff03821115610bc157610bc0610b47565b5b828201905092915050565b6000604082019050610be1600083018561087d565b610bee602083018461087d565b9392505050565b7f596f7520617265206e6f7420746865206f776e65720000000000000000000000600082015250565b6000610c2b601583610942565b9150610c3682610bf5565b602082019050919050565b60006020820190508181036000830152610c5a81610c1e565b9050919050565b7f496e73756666696369656e7420636f6e74726163742062616c616e6365000000600082015250565b6000610c97601d83610942565b9150610ca282610c61565b602082019050919050565b60006020820190508181036000830152610cc681610c8a565b9050919050565b7f416d6f756e74206d7573742062652067726561746572207468616e2030000000600082015250565b6000610d03601d83610942565b9150610d0e82610ccd565b602082019050919050565b60006020820190508181036000830152610d3281610cf6565b9050919050565b7f496e73756666696369656e742062616c616e6365000000000000000000000000600082015250565b6000610d6f601483610942565b9150610d7a82610d39565b602082019050919050565b60006020820190508181036000830152610d9e81610d62565b9050919050565b6000610db082610873565b9150610dbb83610873565b925082821015610dce57610dcd610b47565b5b828203905092915050565b6000606082019050610dee600083018661087d565b610dfb602083018561087d565b610e08604083018461087d565b949350505050565b7f5061796d656e7420616d6f756e74206d7573742062652067726561746572207460008201527f68616e2030000000000000000000000000000000000000000000000000000000602082015250565b6000610e6c602583610942565b9150610e7782610e10565b604082019050919050565b60006020820190508181036000830152610e9b81610e5f565b9050919050565b7f496e73756666696369656e74207061796d656e74000000000000000000000000600082015250565b6000610ed8601483610942565b9150610ee382610ea2565b602082019050919050565b60006020820190508181036000830152610f0781610ecb565b905091905056fea2646970667358221220ee0e8bb3f11ad6fca414fd2394cf9b67a9a28678286cf312a1b3df6d62df67cc64736f6c634300080d0033",
  "immutableReferences": {},
  "source": "// SPDX-License-Identifier: MIT\npragma solidity ^0.8.0;\n\ncontract UniChain {\n    address public owner; // Kontrat sahibi\n    mapping(address => uint256) public balances; // Kullanc bakiyeleri\n\n    event Deposit(address indexed user, uint256 amount, uint256 newBalance);\n    event SendMoney(\n        address indexed sender,\n        address indexed recipient,\n        uint256 amount,\n        uint256 senderBalance,\n        uint256 recipientBalance\n    );\n\n    modifier onlyOwner() {\n        require(msg.sender == owner, \"You are not the owner\");\n        _;\n    }\n\n    constructor() {\n        owner = msg.sender;\n    }\n\n    // Kullanc hesabna bakiye eklemek iin\n    function deposit() external payable {\n        require(msg.value > 0, \"Deposit amount must be greater than 0\");\n        balances[msg.sender] += msg.value;\n        emit Deposit(msg.sender, msg.value, balances[msg.sender]);\n    }\n\n    // Yemek alm ilemi\n    function buyFood() external payable {\n        require(msg.value > 0, \"Payment amount must be greater than 0\");\n\n        // Yemek fiyatn belirleyin (rnein, 1 ETH)\n        uint256 foodPrice = 1 ether;\n        require(msg.value >= foodPrice, \"Insufficient payment\");\n\n        // Kullanc bakiyesinden deme dlyor\n        balances[msg.sender] -= foodPrice;\n\n        // Ek ilemleri buraya ekleyebilirsiniz (rnein, yemekhane sistemi tarafndan kayt tutma)\n\n        // Eer fazladan para varsa, kullancya geri deme yapabilirsiniz\n        uint256 change = msg.value - foodPrice;\n        if (change > 0) {\n            payable(msg.sender).transfer(change);\n        }\n    }\n\n    // Arkadaa para gnderme ilemi\n    function sendMoney(address recipient, uint256 amount) external {\n        require(amount > 0, \"Amount must be greater than 0\");\n        require(balances[msg.sender] >= amount, \"Insufficient balance\");\n\n        balances[msg.sender] -= amount;\n        balances[recipient] += amount;\n\n        emit SendMoney(\n            msg.sender,\n            recipient,\n            amount,\n            balances[msg.sender],\n            balances[recipient]\n        );\n    }\n\n    // Kullancnn bakiyesini kontrol etmek iin\n    function getBalance() external view returns (uint256) {\n        return balances[msg.sender];\n    }\n\n    // Kontrat sahibinin bakiyesini ekmek iin (sadece kontrat sahibi)\n    function withdrawBalance(uint256 amount) external onlyOwner {\n        require(\n            amount <= address(this).balance,\n            \"Insufficient contract balance\"\n        );\n        payable(owner).transfer(amount);\n    }\n\n    // Dier gerekli fonksiyonlar buraya ekleyebilirsiniz\n    function selam() public pure returns (string memory) {\n        return \"Selam!\";\n    }\n}\n",
  "sourcePath": "/Users/beyzaevcen/Desktop/UniChain/contracts/UniChain.sol",
  "compiler": {
    "name": "solc",
    "version": "0.8.13+commit.abaa5c0e.Emscripten.clang"
  },
  "schemaVersion": "3.4.16",
  "updatedAt": "2024-01-22T21:03:47.148Z",
  "devdoc": {
    "kind": "dev",
    "methods": {},
    "version": 1
  },
  "userdoc": {
    "kind": "user",
    "methods": {},
    "version": 1
  }
}