{
  "contractName": "Yemekhane",
  "abi": [
    {
      "inputs": [
        {
          "internalType": "address",
          "name": "_tokenAddress",
          "type": "address"
        }
      ],
      "stateMutability": "nonpayable",
      "type": "constructor"
    },
    {
      "anonymous": false,
      "inputs": [
        {
          "indexed": true,
          "internalType": "address",
          "name": "buyer",
          "type": "address"
        },
        {
          "indexed": false,
          "internalType": "uint256",
          "name": "ethAmount",
          "type": "uint256"
        },
        {
          "indexed": false,
          "internalType": "uint256",
          "name": "tokenAmount",
          "type": "uint256"
        }
      ],
      "name": "BuyMeal",
      "type": "event"
    },
    {
      "inputs": [],
      "name": "admin",
      "outputs": [
        {
          "internalType": "address",
          "name": "",
          "type": "address"
        }
      ],
      "stateMutability": "view",
      "type": "function",
      "constant": true
    },
    {
      "inputs": [],
      "name": "token",
      "outputs": [
        {
          "internalType": "contract IERC20",
          "name": "",
          "type": "address"
        }
      ],
      "stateMutability": "view",
      "type": "function",
      "constant": true
    },
    {
      "inputs": [
        {
          "internalType": "uint256",
          "name": "_ethAmount",
          "type": "uint256"
        }
      ],
      "name": "buyMeal",
      "outputs": [],
      "stateMutability": "payable",
      "type": "function",
      "payable": true
    },
    {
      "inputs": [
        {
          "internalType": "uint256",
          "name": "_amount",
          "type": "uint256"
        }
      ],
      "name": "adminWithdrawEther",
      "outputs": [],
      "stateMutability": "nonpayable",
      "type": "function"
    }
  ],
  "bytecode": "0x608060405234801561001057600080fd5b50604051610ac3380380610ac38339818101604052810190610032919061011c565b336000806101000a81548173ffffffffffffffffffffffffffffffffffffffff021916908373ffffffffffffffffffffffffffffffffffffffff16021790555080600160006101000a81548173ffffffffffffffffffffffffffffffffffffffff021916908373ffffffffffffffffffffffffffffffffffffffff16021790555050610149565b600080fd5b600073ffffffffffffffffffffffffffffffffffffffff82169050919050565b60006100e9826100be565b9050919050565b6100f9816100de565b811461010457600080fd5b50565b600081519050610116816100f0565b92915050565b600060208284031215610132576101316100b9565b5b600061014084828501610107565b91505092915050565b61096b806101586000396000f3fe60806040526004361061003f5760003560e01c8063424e81cc146100445780635c53bd361461006d578063f851a44014610089578063fc0c546a146100b4575b600080fd5b34801561005057600080fd5b5061006b600480360381019061006691906104a8565b6100df565b005b610087600480360381019061008291906104a8565b610226565b005b34801561009557600080fd5b5061009e61040d565b6040516100ab9190610516565b60405180910390f35b3480156100c057600080fd5b506100c9610431565b6040516100d69190610590565b60405180910390f35b60008054906101000a900473ffffffffffffffffffffffffffffffffffffffff1673ffffffffffffffffffffffffffffffffffffffff163373ffffffffffffffffffffffffffffffffffffffff161461016d576040517f08c379a000000000000000000000000000000000000000000000000000000000815260040161016490610608565b60405180910390fd5b60008111801561017d5750478111155b6101bc576040517f08c379a00000000000000000000000000000000000000000000000000000000081526004016101b390610674565b60405180910390fd5b60008054906101000a900473ffffffffffffffffffffffffffffffffffffffff1673ffffffffffffffffffffffffffffffffffffffff166108fc829081150290604051600060405180830381858888f19350505050158015610222573d6000803e3d6000fd5b5050565b60008111610269576040517f08c379a0000000000000000000000000000000000000000000000000000000008152600401610260906106e0565b60405180910390fd5b600061027482610457565b90508134146102b8576040517f08c379a00000000000000000000000000000000000000000000000000000000081526004016102af9061074c565b60405180910390fd5b600160009054906101000a900473ffffffffffffffffffffffffffffffffffffffff1673ffffffffffffffffffffffffffffffffffffffff166323b872dd60008054906101000a900473ffffffffffffffffffffffffffffffffffffffff1633846040518463ffffffff1660e01b81526004016103379392919061077b565b6020604051808303816000875af1158015610356573d6000803e3d6000fd5b505050506040513d601f19601f8201168201806040525081019061037a91906107ea565b6103b9576040517f08c379a00000000000000000000000000000000000000000000000000000000081526004016103b090610863565b60405180910390fd5b3373ffffffffffffffffffffffffffffffffffffffff167f185d0e90f0ed1e157857d5f5c63e9c1495cfec44684ddc914ed6deaa9f47c20a8383604051610401929190610883565b60405180910390a25050565b60008054906101000a900473ffffffffffffffffffffffffffffffffffffffff1681565b600160009054906101000a900473ffffffffffffffffffffffffffffffffffffffff1681565b600060648261046691906108db565b9050919050565b600080fd5b6000819050919050565b61048581610472565b811461049057600080fd5b50565b6000813590506104a28161047c565b92915050565b6000602082840312156104be576104bd61046d565b5b60006104cc84828501610493565b91505092915050565b600073ffffffffffffffffffffffffffffffffffffffff82169050919050565b6000610500826104d5565b9050919050565b610510816104f5565b82525050565b600060208201905061052b6000830184610507565b92915050565b6000819050919050565b600061055661055161054c846104d5565b610531565b6104d5565b9050919050565b60006105688261053b565b9050919050565b600061057a8261055d565b9050919050565b61058a8161056f565b82525050565b60006020820190506105a56000830184610581565b92915050565b600082825260208201905092915050565b7f4f6e6c792061646d696e2063616c6c7300000000000000000000000000000000600082015250565b60006105f26010836105ab565b91506105fd826105bc565b602082019050919050565b60006020820190508181036000830152610621816105e5565b9050919050565b7f496e76616c696420616d6f756e74000000000000000000000000000000000000600082015250565b600061065e600e836105ab565b915061066982610628565b602082019050919050565b6000602082019050818103600083015261068d81610651565b9050919050565b7f496e76616c69642045544820616d6f756e740000000000000000000000000000600082015250565b60006106ca6012836105ab565b91506106d582610694565b602082019050919050565b600060208201905081810360008301526106f9816106bd565b9050919050565b7f496e636f72726563742045544820616d6f756e74000000000000000000000000600082015250565b60006107366014836105ab565b915061074182610700565b602082019050919050565b6000602082019050818103600083015261076581610729565b9050919050565b61077581610472565b82525050565b60006060820190506107906000830186610507565b61079d6020830185610507565b6107aa604083018461076c565b949350505050565b60008115159050919050565b6107c7816107b2565b81146107d257600080fd5b50565b6000815190506107e4816107be565b92915050565b600060208284031215610800576107ff61046d565b5b600061080e848285016107d5565b91505092915050565b7f546f6b656e207472616e73666572206661696c65640000000000000000000000600082015250565b600061084d6015836105ab565b915061085882610817565b602082019050919050565b6000602082019050818103600083015261087c81610840565b9050919050565b6000604082019050610898600083018561076c565b6108a5602083018461076c565b9392505050565b7f4e487b7100000000000000000000000000000000000000000000000000000000600052601160045260246000fd5b60006108e682610472565b91506108f183610472565b9250817fffffffffffffffffffffffffffffffffffffffffffffffffffffffffffffffff048311821515161561092a576109296108ac565b5b82820290509291505056fea264697066735822122046cc633c23786671561f4f7697c52f9f978cafb339098d1f5eb2671b90262ef164736f6c634300080d0033",
  "immutableReferences": {},
  "source": "// SPDX-License-Identifier: MIT\npragma solidity ^0.8.0;\n\ninterface IERC20 {\n    function transferFrom(\n        address sender,\n        address recipient,\n        uint256 amount\n    ) external returns (bool);\n\n    function balanceOf(address account) external view returns (uint256);\n}\n\ncontract Yemekhane {\n    address public admin;\n    IERC20 public token;\n\n    event BuyMeal(\n        address indexed buyer,\n        uint256 ethAmount,\n        uint256 tokenAmount\n    );\n\n    modifier onlyAdmin() {\n        require(msg.sender == admin, \"Only admin calls\");\n        _;\n    }\n\n    constructor(address _tokenAddress) {\n        admin = msg.sender;\n        token = IERC20(_tokenAddress);\n    }\n\n    function buyMeal(uint256 _ethAmount) external payable {\n        require(_ethAmount > 0, \"Invalid ETH amount\");\n\n        // ETH miktar karlnda alnacak token miktarn hesapla\n        uint256 tokenAmount = calculateTokenAmount(_ethAmount);\n\n        // Kullancnn yeterli ETH gnderdiinden emin ol\n        require(msg.value == _ethAmount, \"Incorrect ETH amount\");\n\n        // Kullancnn tokenlar bu akll kontrata aktar\n        require(\n            token.transferFrom(admin, msg.sender, tokenAmount),\n            \"Token transfer failed\"\n        );\n\n        emit BuyMeal(msg.sender, _ethAmount, tokenAmount);\n    }\n\n    // Admin, kontrattan ETH ekebilir\n    function adminWithdrawEther(uint256 _amount) external onlyAdmin {\n        require(\n            _amount > 0 && _amount <= address(this).balance,\n            \"Invalid amount\"\n        );\n        payable(admin).transfer(_amount);\n    }\n\n    // Kullancnn alaca token miktarn hesapla\n    function calculateTokenAmount(\n        uint256 _ethAmount\n    ) internal pure returns (uint256) {\n        // Burada token miktarn belirlemek iin bir forml kullanabilirsiniz\n        // Bu forml projenizin gereksinimlerine gre zelletirebilirsiniz\n        // rnein: _ethAmount * oran\n        return _ethAmount * 100; // rnek olarak, 1 ETH = 100 token\n    }\n\n    // Dier fonksiyonlar...\n}\n",
  "sourcePath": "/Users/beyzaevcen/Desktop/UniChain/contracts/Yemekhane.sol",
  "compiler": {
    "name": "solc",
    "version": "0.8.13+commit.abaa5c0e.Emscripten.clang"
  },
  "schemaVersion": "3.4.16",
  "updatedAt": "2024-01-23T21:37:05.995Z",
  "networkType": "ethereum",
  "devdoc": {
    "kind": "dev",
    "methods": {},
    "version": 1
  },
  "userdoc": {
    "kind": "user",
    "methods": {},
    "version": 1
  }
}